:020000040800F2
:1000000058040020C1010008070F00088F0E0008E7
:10001000050F0008CD02000875120008000000005E
:100020000000000000000000000000000B0F0008AE
:10003000CF02000800000000090F00080D0F0008A3
:10004000DB010008DB010008DB010008DB01000820
:10005000DB010008DB010008DB010008DB01000810
:10006000DB010008DB010008DB010008DB01000800
:10007000DB010008DB010008DB010008DB010008F0
:10008000DB010008DB010008DB010008DB010008E0
:10009000DB010008DB010008DB010008DB010008D0
:1000A000DB010008DB010008DB010008DB010008C0
:1000B000DB010008DB010008DB010008DB010008B0
:1000C000DB010008DB010008DB010008DB010008A0
:1000D000DB01000869120008DB010008DB010008F1
:1000E000DB010008DB010008DB010008DB01000880
:1000F000DB010008DB010008DB010008DB01000870
:10010000DB010008DB010008DB010008DB0100085F
:10011000DB010008DB010008DB010008DB0100084F
:10012000DB010008DB010008DB010008DB0100083F
:10013000DB010008DB010008DB010008DB0100082F
:10014000DB010008DB010008DB010008DB0100081F
:10015000DB010008DB010008DB010008DB0100080F
:10016000DB010008DB010008DB010008DB010008FF
:10017000DB010008DB010008DB01000800000000D3
:10018000DB010008DB010008DB010008DB010008DF
:10019000DB010008DB010008DB010008DB010008CF
:1001A000DB010008DB010008DB010008DFF80CD0F0
:1001B00000F07AF80048004719130008580400209E
:1001C0000648804706480047FEE7FEE7FEE7FEE7F1
:1001D000FEE7FEE7FEE7FEE7FEE7FEE7990F000811
:1001E000AD0100082DE9F05F0546002092469B46D0
:1001F00088460646814640241BE02846414647463D
:10020000224600F041F853465A46C01A914110D395
:1002100011461846224600F028F82D1A67EB01080F
:100220004F4622460120002100F01FF817EB00097D
:100230004E41201EA4F10104DFDC484631462A4627
:100240004346BDE8F09FD2B201E000F8012B491E01
:10025000FBD270470022F6E710B513460A46044663
:100260001946FFF7F0FF204610BD202A04DB203A94
:1002700000FA02F1002070479140C2F1200320FAF9
:1002800003F3194390407047202A04DB203A21FAF7
:1002900002F00021704721FA02F3D040C2F120029F
:1002A0009140084319467047064C074D06E0E06848
:1002B00040F0010394E8070098471034AC42F6D3AD
:1002C000FFF778FF5413000874130008FEE7704727
:1002D000704790F83510022903D080214165012034
:1002E0007047052180F835100068016821F0010190
:1002F00001600020704700002DE9F84F00224FF008
:10030000010803254FF00F0E0B6808FA02F4234092
:10031000A3426ED14E68012E05D0022E03D0112EBD
:1003200001D0122E12D186684FEA420C05FA0CF762
:10033000BE43CF6807FA0CF7374387604668A64389
:100340000C79C4F30014944034434460C6685700E9
:1003500005FA07FC8C6826EA0C06BC403443C460EE
:100360004C68022C01D0122C13D1D40800EB840469
:10037000A346D4F8209054074FEAD46A0EFA0AF63E
:1003800029EA06090E6906FA0AF646EA0906CBF8D2
:10039000206004680E7924EA0C0406F00306BE40CF
:1003A000264306604C68E4006FD53B4C266846F453
:1003B00080462660246822F0030604F480440094FA
:1003C000364C3444A446D4F808489607360F0EFA43
:1003D00006F7BC43324FB84201D100272EE0314F1F
:1003E000B84201D1012729E02F4FB84202D102279C
:1003F00024E04AE02D4FB84201D103271EE02C4FE4
:10040000B84201D1042719E02A4FB84201D105278B
:1004100014E0294FB84201D106270FE0274FB84218
:1004200001D107270AE0264FB84201D1082705E08D
:10043000244FB84201D1092700E00A27B7402743DB
:10044000CCF80878204E34684F689C43FF0300D5F1
:100450001C4334601C4E361D34684F689C43BF03F8
:1004600000D51C433460184E083634684F689C43EE
:10047000FF0200D51C433460134E0C3634684F68BD
:100480009C43BF0200D51C433460521C102AFFF469
:100490003BAFBDE8F88F0000443802400030014017
:1004A000000002400004024000080240000C02402C
:1004B000001002400014024000180240001C0240DC
:1004C0000020024000240240003C014001488068B6
:1004D0007047000000000020024881680278114443
:1004E00081607047000000200B4810B5016841F49E
:1004F00000710160016841F480610160016841F4AC
:1005000080710160032000F06FF8002000F006F811
:1005100000F024F8002010BD003C024070B50D4DE5
:1005200004464FF47A712878B1FBF0F00A49096863
:10053000B1FBF0F000F03CFB48B9102C07D20022D0
:100540002146501E00F030F800206C6070BD012084
:1005500070BD0000000000200C0000200A4808B513
:10056000016841F480410160006800F4804000901F
:100570000548001F016841F080510160006800F0EB
:100580008050009008BD000044380240002809DB7C
:1005900000F01F02012191404009800000F1E0209D
:1005A000C0F8001170470000F0B40E4B1B680C46F9
:1005B000C3F30223C3F10705042D00D90425191D37
:1005C000072901D2002300E0DB1E012606FA05F10F
:1005D000491E214099409E40761E16403143F0BC92
:1005E00000F052BE0CED00E0064900F0070208687A
:1005F0004FF6FF03184040EA0220034A1043086008
:10060000704700000CED00E00000FA052DE9F8430A
:100610001748016841F0805101600068154F00F0F3
:100620008050012600903E64FFF750FF05464FF4CE
:100630007A78114C05E000BFFFF748FF401B4045AA
:100640000DD86068C003F7D57E64FFF73FFF05460D
:10065000464607E0FFF73AFF401BB04202D90320AD
:10066000BDE8F88360688003F4D50020F8E7000057
:100670004038024000000E42007000402DE9F04773
:100680000E46050065D0DFF81481D8F80000F7B2F7
:1006900000F00F00B04207D288F80070D8F80000D0
:1006A00000F00F00B04254D128683D4C810712D5AC
:1006B000400703D5206840F4E05020602878000708
:1006C00003D5206840F4604020602068A96820F0CD
:1006D000F000084320602878C0072DD030496868B2
:1006E0000839012812D0022813D0032811D0096834
:1006F000890700292DDA216821F0030101432160D7
:10070000FFF7E4FE814641F2883A0EE0096889036A
:10071000EFE709688901ECE7FFF7D8FEA0EB0901D4
:10072000514502D90320BDE8F0872068696800F0D0
:100730000C00B0EB810FEFD1D8F80010404601F06B
:100740000F01B14207D90770006800F00F00B042F6
:1007500001D00120E7E72878400705D52068E9683F
:1007600020F4E050084320602878000706D5206870
:10077000296920F4604040EAC100206000F038F8A8
:100780002168084AC1F30311515CC840064908605A
:1007900006480068FFF7C2FE0020C4E7003C0240A4
:1007A000083802403C1300080C0000200400002020
:1007B0000448054900680968044AC1F38221515C74
:1007C000C84070470C000020083802404C13000855
:1007D0000448054900680968044AC1F34231515C84
:1007E000C84070470C000020083802404C13000835
:1007F000154810B5006810F00C02144813D01449C5
:10080000042A0FD0082A0ED10F4C241F2268236817
:1008100002F03F025B0207D52068C0F38810A0FBFE
:10082000010106E0084610BD2168C1F38811A1FB53
:1008300000010023FFF7D6FC2168C1F30141491CE8
:100840004900B0FBF1F010BD083802400024F4006C
:1008500040787D012DE9F84F040076D02078DFF84C
:1008600038A3CE4DC00749D0DAF800105046C1F386
:100870008101012908D00068C0F3810002280AD153
:10088000281D0068400206D52868800336D56068B8
:100890000028E2D032E06068B0F5803F10D0B0F5BB
:1008A000A02F286810D020F480302860286820F419
:1008B000802028606068A0B1FFF708FE06460CE0C3
:1008C000286840F48030F4E740F480202860F7E79F
:1008D000FFF7FCFD801B642873D828688003F7D5D8
:1008E0000CE0FFF7F3FD064605E000BFFFF7EEFD65
:1008F000801B6428F0D828688003F7D42078DFF8BC
:10090000A08280074FF000093ED5DAF8001050466B
:1009100011F00C0F09D00068C0F3810002280BD140
:100920009D48001F0068400206D42868800715D53E
:10093000E068012809D111E0E068B8B10120C8F8E9
:100940000000FFF7C3FD064605E020E1FFF7BEFD0E
:10095000801B0228C0D828688007F7D5286821693D
:1009600020F0F80040EAC10028600DE0C8F80090CF
:10097000FFF7ACFD064604E0FFF7A8FD801B022848
:100980001FD828688007F7D42078000722D5824E28
:10099000844861696C3671B101210160FFF796FDF1
:1009A000074604E0FFF792FDC01B022809D8306813
:1009B0008007F7D50EE0C0F80090FFF787FD0746E7
:1009C00005E082E0FFF782FDC01B02287DD8306879
:1009D0008007F7D42078400768D5DFF8BCB100273E
:1009E0000BF1380BDBF80000C0000BD4DBF8001073
:1009F00041F08051CBF80010DBF80000012700F037
:100A000080500090684E3068C00510D4306840F4C3
:100A100080703060FFF75AFD009005E0FFF756FD4B
:100A20000099401A022850D83068C005F6D55A4EB1
:100A3000A068683601280FD00528306810D020F053
:100A400001003060306820F004003060A068B8B168
:100A5000FFF73CFD00900FE0306840F00100F4E744
:100A600040F004003060F7E7FFF730FD0099411ACD
:100A700041F28830814266D830688007F4D50EE0B4
:100A8000FFF724FD009007E0FFF720FD0099411AD1
:100A900041F28830814256D830688007F4D42FB1B3
:100AA000DBF8001021F08051CBF80010A069D0B322
:100AB000DAF800205146C2F38102022A4AD0022805
:100AC000484607D0C8F8600000E03CE0FFF7FEFCB5
:100AD00004463BE04746C8F86000FFF7F7FC0646CF
:100AE00005E000BFFFF7F2FC801B02282BD8286826
:100AF0008001F7D4D4E907010843A16A2B4A4908C9
:100B000002EB0141626A41EA8211084394F82C1019
:100B100040EA01612048001F016001203866FFF7AC
:100B2000D5FC044605E034E0FFF7D0FC001B0228AA
:100B300009D828688001F7D52BE000BFFFF7C6FC75
:100B4000001B022802D90320BDE8F88F2868800125
:100B5000F4D41EE00128F7D00868E26900F48001AF
:100B6000914214D1226A00F03F0191420FD147F621
:100B7000C071626A0140914209D1A26A00F4403119
:100B8000914204D1E16A00F07060884201D00120F6
:100B9000DAE70020D8E700000838024000380240B9
:100BA00000004742800E4742007000400000FFFFF7
:100BB00010B5401EB0F1807F01D3012010BD4FF071
:100BC000E02460610F21601700F05EFB0020A0614F
:100BD00007202061002010BD7047000070B502683A
:100BE00004461068D168536910F00F0F52D003F01B
:100BF000010501F490762E435FD0C20705D0CA05E7
:100C000003D5E26B42F00102E263420705D5DA0741
:100C100003D0E26B42F00202E263820705D5DA07F5
:100C200003D0E26B42F00402E263020707D501F051
:100C300020022A4303D0E26B42F00802E263E26B37
:100C4000002A33D0800604D5880602D5204600F05D
:100C5000C7F920684069E16BC0F38010090700D430
:100C600028B3204600F0AEF92068416949061AD53C
:100C7000416921F040014161606BA0B11B490165F0
:100C8000606BFFF726FB002810D0606B016DBDE89C
:100C900070400847830610D58B060ED52046BDE868
:100CA000704000F09DB92046FFF796FF70BD2046CA
:100CB000FFF792FF0020E06370BD030606D50B0628
:100CC00004D52046BDE8704000F06ABA4006F3D56E
:100CD0004806F1D5D168204621F04001D16020219D
:100CE00084F8391000F0D2F870BD0000B50F00088C
:100CF00070B5040004D094F83900002510B106E066
:100D0000012070BD84F83850204600F023F82420DC
:100D100084F839002068C16821F40051C160204680
:100D200000F0AAF92068016921F49041016120686E
:100D3000416921F02A0141612068C16841F40051F4
:100D4000C160E563202084F8390084F83A0000206F
:100D500070BD000010B586B0044614216846FFF748
:100D600079FA18492068884229D11748016841F06A
:100D700010010160006800F010000590124814385E
:100D8000016841F0010101600068694600F001005E
:100D900005904FF4C0600090022001900120029065
:100DA00003200390072004900848FFF7A5FA0022CB
:100DB00011462520FFF7F8FB2520FFF7E7FB06B0DB
:100DC00010BD000000100140443802400000024005
:100DD00070472DE9F843044690F839001F4616463F
:100DE0000D46202850D1B5B1AEB194F83800012895
:100DF0004AD0012084F838004FF00008C4F83C8045
:100E0000212084F83900FFF761FBA6848146E6843F
:100E100084F8388026E00120BDE8F883E08C401E8D
:100E2000E084A0684B46B0F5805F4FF000024FF0C1
:100E300080012046009703D000F0E3F9E8B90DE007
:100E400000F0DFF9C8B928882168C0F308004860BD
:100E5000206908B16D1C05E0AD1C03E0216815F8A0
:100E6000010B4860E08C0028D8D14B46002240217D
:100E70002046009700F0C5F908B10320CCE72020F8
:100E800084F839000020C7E70220C5E77047FEE775
:100E90000D4808B5016841F080010160016801F06A
:100EA00080010091016841F001010160016801F0D9
:100EB00001010091016841F002010160006800F049
:100EC0000200009008BD0000303802400C4810B508
:100ED0000A4901604FF4E1314160002181600C2238
:100EE000C160C0E904128161C161FFF701FF002800
:100EF00003D0BDE81040FFF7EBB910BD0010014072
:100F000014000020FEE7704770477047FFF7E4BA0F
:100F100070B592B030216846FFF79CF914210CA8F7
:100F2000FFF798F91A480025016841F080510160E7
:100F3000006800F0805011901648016841F440416B
:100F400001600068022400F44040119001200090EC
:100F5000000401908001CDE906400F260896D820B4
:100F6000CDE9090404200B906846FFF773FCFFF7F6
:100F70004DFB4FF4A050CDE90E50E002CDE90C64DA
:100F8000109005210CA8FFF779FB12B070BD00008E
:100F900040380240007000400548016841F470018B
:100FA000016003494FF0006080390860704700001D
:100FB00088ED00E010B5806B0021C185C184FFF78A
:100FC0000BFE10BD0168CA6822F49072CA60016805
:100FD0004A6922F001024A61202180F83A107047E4
:100FE00010B590F83A10222901D0022010BD816876
:100FF000B1F5805F11D00169002901681FD04968EF
:1010000001F07F03816A4A1C82620B70C18D491E08
:101010000904090CC18518D02BE00269816A002AF5
:101020000268526805D0D2B20A80816A491C816286
:10103000ECE7C2F308020A80816A891CF7E74A6874
:10104000816A4B1C83620A70E0E70168CA6822F07B
:101050002002CA600168CA6822F48072CA6001680E
:101060004A6922F001024A61202180F83A10FFF714
:10107000AFFE002010BD00002DE9F04104460068DD
:101080000169E26821F44051114301612169A068BE
:10109000E26908436169114308432168CA6849F25B
:1010A0000C639A430243CA6020684169A26921F433
:1010B000407111434161E069192764253226B0F57A
:1010C000004F354A354920684FF0000806D0884265
:1010D00001D0904236D1FFF77BFB35E0884201D04A
:1010E000904202D1FFF774FB01E0FFF761FB6168FA
:1010F0004A18A0FB070148EB0803FFF773F8014605
:10110000B0FBF5F00201B1FBF5F06FF018035843A6
:1011100001EB800006EBC000B0FBF5F000F0F8003A
:1011200002EB4002B1FBF5F0584301EB800006EB07
:10113000C000B0FBF5F000F00700216810448860A3
:10114000BDE8F081FFF734FB61688B0F8A00A0FBDC
:101150000701FFF747F80146B0FBF5F06FF0180202
:10116000504301EB800006EB0010B0FBF5F000F0FF
:10117000F002B1FBF5F002EB0012B1FBF5F06FF0FD
:101180001803584301EB800006EB0010B0FBF5F0AC
:1011900000F00F00D1E700000014014000100140F2
:1011A00090F83910212901D0022070478168B1F5EB
:1011B000805F016A0BD04A1C0262026809785160A4
:1011C000C18C491E0904090CC1840ED017E009889E
:1011D0000268C1F30801516001690029016A02D067
:1011E000491C0162ECE7891CFBE70168CA6822F030
:1011F0008002CA600068C16841F04001C1600020FF
:1012000070472DE9F041984617460E460446069D64
:101210001DE0681C1BD02DB1FFF758F9A0EB0800AA
:10122000A84214D92068C16821F4D071C160206837
:10123000416921F001014161202084F8390084F8DE
:101240003A00002084F838000320BDE8F0812068CF
:10125000006836EA000004D00020B842D9D000204F
:10126000F3E70120F9E700000148FFF7B7BC0000F1
:1012700014000020FEE70000014A024900F023B8F4
:10128000E9120008100000200907090E002804DBFD
:1012900000F1E02080F80014704700F00F0000F12A
:1012A000E02080F8141D704702E008C8121F08C132
:1012B000002AFAD170477047002001E001C1121FD7
:1012C000002AFBD170472DE9F04116460F4604462F
:1012D000002503E03946B047641C6D1C20780028C7
:1012E000F8D12846BDE8F08113B500980A2806D148
:1012F00047F23053012206A10648FFF76AFD4FF678
:10130000FF73012269460348FFF763FD00981CBD87
:101310000D00000014000020FFF7E6F8FFF7F8FDCD
:10132000FFF7B6FDFFF7D2FD01A0FFF7A5FFFEE72F
:10133000B3CCD0F2BFAACABC0D0A00000000000066
:101340000000000001020304060708090000000075
:1013500001020304741300080000002014000000C0
:10136000A81200088813000814000020440400009C
:10137000B81200080100000010000000000000008A
:081380000024F400000000004D
:04000005080001AD41
:00000001FF
